{
  "contractName": "PermanentTweet",
  "abi": [
    {
      "anonymous": false,
      "inputs": [
        {
          "indexed": true,
          "internalType": "address",
          "name": "userAddress",
          "type": "address"
        },
        {
          "indexed": false,
          "internalType": "uint256",
          "name": "tweetId",
          "type": "uint256"
        },
        {
          "indexed": false,
          "internalType": "string",
          "name": "content",
          "type": "string"
        },
        {
          "indexed": false,
          "internalType": "uint256",
          "name": "timeOfPosting",
          "type": "uint256"
        }
      ],
      "name": "TweetPosted",
      "type": "event"
    },
    {
      "constant": true,
      "inputs": [],
      "name": "tweetCount",
      "outputs": [
        {
          "internalType": "uint256",
          "name": "",
          "type": "uint256"
        }
      ],
      "payable": false,
      "stateMutability": "view",
      "type": "function"
    },
    {
      "constant": true,
      "inputs": [
        {
          "internalType": "address",
          "name": "",
          "type": "address"
        }
      ],
      "name": "tweets",
      "outputs": [
        {
          "internalType": "address",
          "name": "userAddress",
          "type": "address"
        },
        {
          "internalType": "uint256",
          "name": "tweetId",
          "type": "uint256"
        },
        {
          "internalType": "string",
          "name": "content",
          "type": "string"
        },
        {
          "internalType": "uint256",
          "name": "timeOfPosting",
          "type": "uint256"
        }
      ],
      "payable": false,
      "stateMutability": "view",
      "type": "function"
    },
    {
      "constant": false,
      "inputs": [
        {
          "internalType": "string",
          "name": "_content",
          "type": "string"
        }
      ],
      "name": "tweet",
      "outputs": [],
      "payable": false,
      "stateMutability": "nonpayable",
      "type": "function"
    }
  ],
  "bytecode": "0x6080604052600060015534801561001557600080fd5b5061062e806100256000396000f3fe608060405234801561001057600080fd5b50600436106100415760003560e01c80634a7782b3146100465780635eaf48b414610064578063fb46d4c514610162575b600080fd5b61004e61021d565b6040518082815260200191505060405180910390f35b6100a66004803603602081101561007a57600080fd5b81019080803573ffffffffffffffffffffffffffffffffffffffff169060200190929190505050610223565b604051808573ffffffffffffffffffffffffffffffffffffffff1673ffffffffffffffffffffffffffffffffffffffff16815260200184815260200180602001838152602001828103825284818151815260200191508051906020019080838360005b83811015610124578082015181840152602081019050610109565b50505050905090810190601f1680156101515780820380516001836020036101000a031916815260200191505b509550505050505060405180910390f35b61021b6004803603602081101561017857600080fd5b810190808035906020019064010000000081111561019557600080fd5b8201836020820111156101a757600080fd5b803590602001918460018302840111640100000000831117156101c957600080fd5b91908080601f016020809104026020016040519081016040528093929190818152602001838380828437600081840152601f19601f82011690508083019250505050505050919291929050505061030b565b005b60015481565b60006020528060005260406000206000915090508060000160009054906101000a900473ffffffffffffffffffffffffffffffffffffffff1690806001015490806002018054600181600116156101000203166002900480601f0160208091040260200160405190810160405280929190818152602001828054600181600116156101000203166002900480156102fb5780601f106102d0576101008083540402835291602001916102fb565b820191906000526020600020905b8154815290600101906020018083116102de57829003601f168201915b5050505050908060030154905084565b6101188151116104e35760016000815480929190600101919050555060405180608001604052803273ffffffffffffffffffffffffffffffffffffffff1681526020016001548152602001828152602001428152506000803273ffffffffffffffffffffffffffffffffffffffff1673ffffffffffffffffffffffffffffffffffffffff16815260200190815260200160002060008201518160000160006101000a81548173ffffffffffffffffffffffffffffffffffffffff021916908373ffffffffffffffffffffffffffffffffffffffff16021790555060208201518160010155604082015181600201908051906020019061040b929190610554565b50606082015181600301559050503273ffffffffffffffffffffffffffffffffffffffff167f62cc896c9020a99a8d069a572c2eb0a7566ef7be211028a6cc6e1ce5158c6d8f60015483426040518084815260200180602001838152602001828103825284818151815260200191508051906020019080838360005b838110156104a2578082015181840152602081019050610487565b50505050905090810190601f1680156104cf5780820380516001836020036101000a031916815260200191505b5094505050505060405180910390a2610551565b6040517f08c379a00000000000000000000000000000000000000000000000000000000081526004018080602001828103825260118152602001807f547765657420697320746f6f206c6f6e6700000000000000000000000000000081525060200191505060405180910390fd5b50565b828054600181600116156101000203166002900490600052602060002090601f016020900481019282601f1061059557805160ff19168380011785556105c3565b828001600101855582156105c3579182015b828111156105c25782518255916020019190600101906105a7565b5b5090506105d091906105d4565b5090565b6105f691905b808211156105f25760008160009055506001016105da565b5090565b9056fea265627a7a723158206041f5d39a7cd803badcb2bce7afa24d29cbdc1c0a40186fad3b8edab449051f64736f6c63430005100032",
  "source": "pragma solidity ^0.5.16;\n\ncontract PermanentTweet {\n    struct Tweet {\n        address userAddress;\n        uint tweetId;\n        string content;\n        uint timeOfPosting;\n    }\n\n    mapping (address => Tweet) public tweets;\n\n    uint public tweetCount = 0;\n\n    event TweetPosted(\n        address indexed userAddress,\n        uint tweetId,\n        string content,\n        uint timeOfPosting\n    );\n\n    /* error TweetIsLongerThan280Characters(string _content);\n       - Custom errors are not supported in the version of Solidity\n       - that is supported by the latest version of Truffle\n     */\n\n    function tweet(string memory _content) public {\n        if (bytes(_content).length <= 280) {\n            tweetCount++;\n            tweets[tx.origin] = Tweet(\n                tx.origin,\n                tweetCount,\n                _content,\n                block.timestamp\n            );\n            emit TweetPosted(tx.origin, tweetCount, _content, block.timestamp);\n        } else {\n            revert(\"Tweet is too long\");\n        }\n    }\n}\n",
  "sourcePath": "/Users/glebdianov/code/permanent-twitter/contracts/PermanentTweet.sol",
  "compiler": {
    "name": "solc",
    "version": "0.5.16+commit.9c3226ce.Emscripten.clang"
  },
  "schemaVersion": "3.4.3",
  "updatedAt": "2021-10-07T15:04:04.319Z",
  "networkType": "ethereum",
  "devdoc": {
    "methods": {}
  },
  "userdoc": {
    "methods": {}
  }
}