{
  "contractName": "PermanentTweet",
  "abi": [
    {
      "anonymous": false,
      "inputs": [
        {
          "indexed": true,
          "internalType": "address",
          "name": "userAddress",
          "type": "address"
        },
        {
          "indexed": false,
          "internalType": "uint256",
          "name": "tweetId",
          "type": "uint256"
        },
        {
          "indexed": false,
          "internalType": "string",
          "name": "content",
          "type": "string"
        },
        {
          "indexed": false,
          "internalType": "uint256",
          "name": "timeOfPosting",
          "type": "uint256"
        }
      ],
      "name": "TweetPosted",
      "type": "event"
    },
    {
      "constant": true,
      "inputs": [],
      "name": "tweetCount",
      "outputs": [
        {
          "internalType": "uint256",
          "name": "",
          "type": "uint256"
        }
      ],
      "payable": false,
      "stateMutability": "view",
      "type": "function"
    },
    {
      "constant": true,
      "inputs": [
        {
          "internalType": "uint256",
          "name": "",
          "type": "uint256"
        }
      ],
      "name": "tweets",
      "outputs": [
        {
          "internalType": "address",
          "name": "userAddress",
          "type": "address"
        },
        {
          "internalType": "uint256",
          "name": "tweetId",
          "type": "uint256"
        },
        {
          "internalType": "string",
          "name": "content",
          "type": "string"
        },
        {
          "internalType": "uint256",
          "name": "timeOfPosting",
          "type": "uint256"
        }
      ],
      "payable": false,
      "stateMutability": "view",
      "type": "function"
    },
    {
      "constant": false,
      "inputs": [
        {
          "internalType": "string",
          "name": "_content",
          "type": "string"
        }
      ],
      "name": "tweet",
      "outputs": [],
      "payable": false,
      "stateMutability": "nonpayable",
      "type": "function"
    }
  ],
  "bytecode": "0x6080604052600060015534801561001557600080fd5b506105ee806100256000396000f3fe608060405234801561001057600080fd5b50600436106100415760003560e01c80634a7782b314610046578063e8d857b014610064578063fb46d4c51461014c575b600080fd5b61004e610207565b6040518082815260200191505060405180910390f35b6100906004803603602081101561007a57600080fd5b810190808035906020019092919050505061020d565b604051808573ffffffffffffffffffffffffffffffffffffffff1673ffffffffffffffffffffffffffffffffffffffff16815260200184815260200180602001838152602001828103825284818151815260200191508051906020019080838360005b8381101561010e5780820151818401526020810190506100f3565b50505050905090810190601f16801561013b5780820380516001836020036101000a031916815260200191505b509550505050505060405180910390f35b6102056004803603602081101561016257600080fd5b810190808035906020019064010000000081111561017f57600080fd5b82018360208201111561019157600080fd5b803590602001918460018302840111640100000000831117156101b357600080fd5b91908080601f016020809104026020016040519081016040528093929190818152602001838380828437600081840152601f19601f8201169050808301925050505050505091929192905050506102f5565b005b60015481565b60006020528060005260406000206000915090508060000160009054906101000a900473ffffffffffffffffffffffffffffffffffffffff1690806001015490806002018054600181600116156101000203166002900480601f0160208091040260200160405190810160405280929190818152602001828054600181600116156101000203166002900480156102e55780601f106102ba576101008083540402835291602001916102e5565b820191906000526020600020905b8154815290600101906020018083116102c857829003601f168201915b5050505050908060030154905084565b6101188151116104a35760016000815480929190600101919050555060405180608001604052803273ffffffffffffffffffffffffffffffffffffffff168152602001600154815260200182815260200142815250600080600154815260200190815260200160002060008201518160000160006101000a81548173ffffffffffffffffffffffffffffffffffffffff021916908373ffffffffffffffffffffffffffffffffffffffff1602179055506020820151816001015560408201518160020190805190602001906103cb929190610514565b50606082015181600301559050503273ffffffffffffffffffffffffffffffffffffffff167f62cc896c9020a99a8d069a572c2eb0a7566ef7be211028a6cc6e1ce5158c6d8f60015483426040518084815260200180602001838152602001828103825284818151815260200191508051906020019080838360005b83811015610462578082015181840152602081019050610447565b50505050905090810190601f16801561048f5780820380516001836020036101000a031916815260200191505b5094505050505060405180910390a2610511565b6040517f08c379a00000000000000000000000000000000000000000000000000000000081526004018080602001828103825260118152602001807f547765657420697320746f6f206c6f6e6700000000000000000000000000000081525060200191505060405180910390fd5b50565b828054600181600116156101000203166002900490600052602060002090601f016020900481019282601f1061055557805160ff1916838001178555610583565b82800160010185558215610583579182015b82811115610582578251825591602001919060010190610567565b5b5090506105909190610594565b5090565b6105b691905b808211156105b257600081600090555060010161059a565b5090565b9056fea265627a7a72315820daaa16ee3de01dda10d41ddb614b1b99765770b94ca3bb170f77fcd472d2dff064736f6c63430005100032",
  "source": "pragma solidity ^0.5.16;\n\ncontract PermanentTweet {\n    struct Tweet {\n        address userAddress;\n        uint tweetId;\n        string content;\n        uint timeOfPosting;\n    }\n\n    mapping (uint => Tweet) public tweets;\n\n    uint public tweetCount = 0;\n\n    event TweetPosted(\n        address indexed userAddress,\n        uint tweetId,\n        string content,\n        uint timeOfPosting\n    );\n\n    /* error TweetIsLongerThan280Characters(string _content);\n       - Custom errors are not supported in the version of Solidity\n       - that is supported by the latest version of Truffle\n     */\n\n    function tweet(string memory _content) public {\n        if (bytes(_content).length <= 280) {\n            tweetCount++;\n            tweets[tweetCount] = Tweet(\n                tx.origin,\n                tweetCount,\n                _content,\n                block.timestamp\n            );\n            emit TweetPosted(tx.origin, tweetCount, _content, block.timestamp);\n        } else {\n            revert(\"Tweet is too long\");\n        }\n    }\n}\n",
  "sourcePath": "/Users/glebdianov/code/permanent-twitter/contracts/PermanentTweet.sol",
  "compiler": {
    "name": "solc",
    "version": "0.5.16+commit.9c3226ce.Emscripten.clang"
  },
  "schemaVersion": "3.4.3",
  "updatedAt": "2021-10-09T18:57:00.283Z",
  "networkType": "ethereum",
  "devdoc": {
    "methods": {}
  },
  "userdoc": {
    "methods": {}
  }
}