{
  "contractName": "TweetContract",
  "abi": [
    {
      "inputs": [],
      "payable": false,
      "stateMutability": "nonpayable",
      "type": "constructor"
    },
    {
      "anonymous": false,
      "inputs": [
        {
          "indexed": true,
          "internalType": "address",
          "name": "userAddress",
          "type": "address"
        },
        {
          "indexed": false,
          "internalType": "uint256",
          "name": "tweetId",
          "type": "uint256"
        },
        {
          "indexed": false,
          "internalType": "string",
          "name": "content",
          "type": "string"
        },
        {
          "indexed": false,
          "internalType": "uint256",
          "name": "timeOfPosting",
          "type": "uint256"
        }
      ],
      "name": "TweetPosted",
      "type": "event"
    },
    {
      "constant": true,
      "inputs": [],
      "name": "tweetCount",
      "outputs": [
        {
          "internalType": "uint256",
          "name": "",
          "type": "uint256"
        }
      ],
      "payable": false,
      "stateMutability": "view",
      "type": "function"
    },
    {
      "constant": true,
      "inputs": [
        {
          "internalType": "uint256",
          "name": "",
          "type": "uint256"
        }
      ],
      "name": "tweets",
      "outputs": [
        {
          "internalType": "uint256",
          "name": "tweetId",
          "type": "uint256"
        },
        {
          "internalType": "string",
          "name": "content",
          "type": "string"
        },
        {
          "internalType": "uint256",
          "name": "timeOfPosting",
          "type": "uint256"
        }
      ],
      "payable": false,
      "stateMutability": "view",
      "type": "function"
    },
    {
      "constant": true,
      "inputs": [],
      "name": "userAddress",
      "outputs": [
        {
          "internalType": "address",
          "name": "",
          "type": "address"
        }
      ],
      "payable": false,
      "stateMutability": "view",
      "type": "function"
    },
    {
      "constant": false,
      "inputs": [
        {
          "internalType": "string",
          "name": "_content",
          "type": "string"
        }
      ],
      "name": "tweet",
      "outputs": [],
      "payable": false,
      "stateMutability": "nonpayable",
      "type": "function"
    }
  ],
  "bytecode": "0x6080604052600060025534801561001557600080fd5b50326000806101000a81548173ffffffffffffffffffffffffffffffffffffffff021916908373ffffffffffffffffffffffffffffffffffffffff1602179055506105ce806100656000396000f3fe608060405234801561001057600080fd5b506004361061004c5760003560e01c80634a7782b314610051578063e4128fb31461006f578063e8d857b0146100b9578063fb46d4c51461016e575b600080fd5b610059610229565b6040518082815260200191505060405180910390f35b61007761022f565b604051808273ffffffffffffffffffffffffffffffffffffffff1673ffffffffffffffffffffffffffffffffffffffff16815260200191505060405180910390f35b6100e5600480360360208110156100cf57600080fd5b8101908080359060200190929190505050610254565b6040518084815260200180602001838152602001828103825284818151815260200191508051906020019080838360005b83811015610131578082015181840152602081019050610116565b50505050905090810190601f16801561015e5780820380516001836020036101000a031916815260200191505b5094505050505060405180910390f35b6102276004803603602081101561018457600080fd5b81019080803590602001906401000000008111156101a157600080fd5b8201836020820111156101b357600080fd5b803590602001918460018302840111640100000000831117156101d557600080fd5b91908080601f016020809104026020016040519081016040528093929190818152602001838380828437600081840152601f19601f820116905080830192505050505050509192919290505050610316565b005b60025481565b6000809054906101000a900473ffffffffffffffffffffffffffffffffffffffff1681565b6001602052806000526040600020600091509050806000015490806001018054600181600116156101000203166002900480601f0160208091040260200160405190810160405280929190818152602001828054600181600116156101000203166002900480156103065780601f106102db57610100808354040283529160200191610306565b820191906000526020600020905b8154815290600101906020018083116102e957829003601f168201915b5050505050908060020154905083565b61011881511161048357600260008154809291906001019190505550604051806060016040528060025481526020018281526020014281525060016000600254815260200190815260200160002060008201518160000155602082015181600101908051906020019061038a9291906104f4565b50604082015181600201559050506000809054906101000a900473ffffffffffffffffffffffffffffffffffffffff1673ffffffffffffffffffffffffffffffffffffffff167f62cc896c9020a99a8d069a572c2eb0a7566ef7be211028a6cc6e1ce5158c6d8f60025483426040518084815260200180602001838152602001828103825284818151815260200191508051906020019080838360005b83811015610442578082015181840152602081019050610427565b50505050905090810190601f16801561046f5780820380516001836020036101000a031916815260200191505b5094505050505060405180910390a26104f1565b6040517f08c379a00000000000000000000000000000000000000000000000000000000081526004018080602001828103825260118152602001807f547765657420697320746f6f206c6f6e6700000000000000000000000000000081525060200191505060405180910390fd5b50565b828054600181600116156101000203166002900490600052602060002090601f016020900481019282601f1061053557805160ff1916838001178555610563565b82800160010185558215610563579182015b82811115610562578251825591602001919060010190610547565b5b5090506105709190610574565b5090565b61059691905b8082111561059257600081600090555060010161057a565b5090565b9056fea265627a7a72315820fadaef8e1473ebbf24755704090c02787763e8b5588b5eee24380ef45eac31b064736f6c63430005100032",
  "source": "pragma solidity ^0.5.16;\n\ncontract TweetContract {\n    address public userAddress;\n\n    constructor() public {\n        userAddress = tx.origin;\n    }\n\n    struct Tweet {\n        uint tweetId;\n        string content;\n        uint timeOfPosting;\n    }\n\n    mapping (uint => Tweet) public tweets;\n\n    uint public tweetCount = 0;\n\n    event TweetPosted(\n        address indexed userAddress,\n        uint tweetId,\n        string content,\n        uint timeOfPosting\n    );\n\n    /* error TweetIsLongerThan280Characters(string _content);\n       - Custom errors are not supported in the version of Solidity\n       - that is supported by the latest version of Truffle\n     */\n\n    function tweet(string memory _content) public {\n        if (bytes(_content).length <= 280) {\n            tweetCount++;\n            tweets[tweetCount] = Tweet(\n                tweetCount,\n                _content,\n                block.timestamp\n            );\n            emit TweetPosted(userAddress, tweetCount, _content, block.timestamp);\n        } else {\n            revert(\"Tweet is too long\");\n        }\n    }\n}\n",
  "sourcePath": "/Users/glebdianov/code/permanent-twitter/contracts/Tweet.sol",
  "compiler": {
    "name": "solc",
    "version": "0.5.16+commit.9c3226ce.Emscripten.clang"
  },
  "schemaVersion": "3.4.3",
  "updatedAt": "2021-10-21T19:14:27.407Z",
  "networkType": "ethereum",
  "devdoc": {
    "methods": {}
  },
  "userdoc": {
    "methods": {}
  }
}